:100000000C9434000C9446000C9446000C9446006A
:100010000C9446000C9446000C9446000C9482010B
:100020000C9446000C9446000C9446000C94460038
:100030000C9446000C94CE010C94FB000C940E0121
:100040000C944C010C9446000C9446000C94460011
:100050000C9446000C94A2010C9446000C944600AB
:100060000C9446000C94460011241FBECFEFD4E040
:10007000DEBFCDBF21E0A0E0B1E001C01D92A33101
:10008000B207E1F70E94F6010C946F030C94000094
:10009000982F990F9E7198B982958F70806E8BB949
:1000A00008959FEF980F933078F429B143E050E022
:1000B000481B5109042E01C0220F0A94EAF7822F2F
:1000C000881F8827881F08958FEF089582E0809306
:1000D000B00083E08093B10008958DE78093B30072
:1000E00082E0809370001092B20010921201089585
:1000F00080E280937C008FE880937A0010927B00EE
:100100000895EAE7F0E08081806480830895EAE75B
:10011000F0E080818F7B8083089582E88093800067
:1001200089E180938100109282000895E0E8F0E078
:100130008081806880838FEF9FEF9093870080930A
:10014000860081E080936F000895E0E8F0E0808110
:100150008F77808310926F0008958617970718F4A1
:10016000BC016150710980959095909385008093B2
:1001700084006095709570938900609388009093D7
:1001800003018093020170930701609306010895B3
:1001900014BC83E085BD08958091050187BD83E08F
:1001A00080936E0016BC0895EF92FF920F931F93F9
:1001B000CF93DF938C01EB017A010E94A5008DE7BC
:1001C00088BD1093010100930001EEE6F0E080810C
:1001D000846080830E948D000E949600B701CE014A
:1001E000DF91CF911F910F91FF90EF900C94AD0094
:1001F00084E690E008951F920F920FB60F9211249B
:100200008F939F938FB718B890EE9BB98FBF9F9134
:100210008F910F900FBE0F901F9018951F920F9205
:100220000FB60F9211242F933F934F935F936F93C9
:100230007F938F939F93AF93BF93CF93EF93FF934E
:10024000CFB78091000190910101892B49F418BC2E
:100250000E94A50080916E008B7F80936E0009C084
:100260008091000190910101019790930101809389
:100270000001CFBFFF91EF91CF91BF91AF919F91BF
:100280008F917F916F915F914F913F912F910F903F
:100290000FBE0F901F9018951F920F920FB60F92DE
:1002A00011242F933F934F935F936F937F938F937B
:1002B0009F93AF93BF93CF93EF93FF93CFB716BCAA
:1002C0008091050187BD80910501811104C018B896
:1002D00080EE8BB904C0809108010E944800CFBF16
:1002E000FF91EF91CF91BF91AF919F918F917F91AE
:1002F0006F915F914F913F912F910F900FBE0F9093
:100300001F9018951F920F920FB60F9211248F9382
:100310009F939FB71092B20080911201863028F00F
:10032000109212011092110105C0809112018F5F8D
:10033000809312019FBF9F918F910F900FBE0F90DE
:100340001F9018951F920F920FB60F9211242F93A2
:100350003F934F935F936F937F938F939F93AF934D
:10036000BF93CF93EF93FF93CFB70E948700809105
:10037000790080930401CFBFFF91EF91CF91BF919E
:10038000AF919F918F917F916F915F914F913F912D
:100390002F910F900FBE0F901F9018951F920F92E4
:1003A0000FB60F9211242F938F939F93EF93FF9388
:1003B0002FB7E4E8F0E0118210828091060190915D
:1003C00007019093890080938800809102019091A9
:1003D0000301918380832FBFFF91EF919F918F91B4
:1003E0002F910F900FBE0F901F901895CF93DF9312
:1003F000CDB7DEB727970FB6F894DEBF0FBECDBFDF
:10040000F89487E084B98EE387B98FE18AB915B88B
:1004100018B880EE8BB90E9478000E9466000E9496
:10042000C80081E0809311010E946D000E94CC0001
:1004300078940E9481001092050148EE53E060EA32
:100440007FE082E390E00E94D400912C1F821E8204
:1004500030E0212C40E020E000E010E0E12CF12C25
:100460005AEA852E33243A94809111018111FCCFF0
:1004700051E0509311012B833D834C830E948100F6
:100480008091040164E6869FC00111246FEF70E043
:100490000E945B036F5F7F4F8AE0869F3001879FDA
:1004A000700C11244C812B813D814423E9F049B12A
:1004B00099B189B145FBCC24C0F8D12C96FB992782
:1004C00090F999831A82E981FA81CE0EDF1E880F96
:1004D000C11CD11CF3E0CF16D10409F058C025315E
:1004E00008F057C02F5F57C059B199B189B155FB7A
:1004F000AA24A0F8B12C96FB442440F8512CA40C5B
:10050000B51C880FA11CB11C52E0A516B1040CF457
:1005100042C04D9918C02531C0F140ED57E060E46C
:100520007FE182E390E00E94D400109205019110D7
:100530003DC0992493941F821E8230E041E020E068
:1005400000E010E0B5C04E990EC02531F0F04CED42
:1005500055E060E777E182E390E00E94D40022203A
:1005600069F12A942DC04F9918C0253170F042EEE0
:1005700054E068E873E182E390E00E94D40069E00F
:10058000261609F48EC023941BC02F5F07C041E0DC
:1005900004C040E002C041E001C020E0911064CFFF
:1005A000E114F10459F53F3891F44AC020E01F826C
:1005B0001E8241E030E000E010E009C089E0282E12
:1005C000911071C020E01F821E8241E030E0EE8178
:1005D000FF81E69DC001E79D900DF69D900D1124D1
:1005E0008B3F910520F03F5F1F821E820FC06E81FE
:1005F0007F816F5F7F4F7F836E8308C0311109C099
:1006000081E0012B09F080E0082F10E0E12CF12CB3
:100610001AC0EE81FF81E69DC001E79D900DF69D19
:10062000900D11248B3F910520F031501F821E82C6
:100630000AC06E817F816F5F7F4F7F836E8303C0AF
:10064000EE24E394F12C211003C03092080125C060
:1006500071E027120BC00115110521F480EF809382
:1006600008011BC09FE09093080117C0E2E02E1222
:100670000BC00115110521F4FCECF09308010DC02D
:1006800053E35093080109C00115110519F4809234
:10069000080103C065E56093080130930501912CC2
:1006A000E3CE212C8DCF1F821E8230E041E020E07E
:1006B000E12CF12CD9CEAA1BBB1B51E107C0AA1F0C
:1006C000BB1FA617B70710F0A61BB70B881F991FF3
:1006D0005A95A9F780959095BC01CD010895F8949D
:0206E000FFCF4A
:00000001FF
